:020000040000FA
:0400000080312828FB
:100008007E1480310B1F09280A2826282100931CFA
:100018000E280F2818282000931C132814281828A5
:1000280081318821803126282100111C1C281D2897
:1000380026282000111C21282228262881314D211C
:10004800803126287E10090080312A288131CD216F
:100058008031C6008131CE218031C7008131CF2166
:100068008031C8008131D0218031C900203084001E
:100078000030850022308131BB2180317E10200084
:100088008031EA28730872047104700403194D283A
:100098004E288728F901F90A5C280130F035F10D5E
:1000A800F20DF30D890B52280130F8007808F90792
:1000B800F31F5F286028512873087702031D6E28F4
:1000C80072087602031D6E2871087502031D6E28DA
:1000D80070087402031C712872287A287008F402C8
:1000E8007108F53B7208F63B7308F73B0130F336AD
:1000F800F20CF10CF00C890B7B280130F902031D7E
:100108008628872860287708F3007608F2007508A3
:10011800F1007408F000080022000C0C0139FA0004
:100128000130FA06FA0D0C087A06FD397A068C00B9
:1001380020004908F3004808F2004708F100460883
:10014800F00001303D07F40000303E3DF50000307E
:100158003F3DF6000030403DF700803146208031B9
:1001680073082000C0007208BF007108BE00700844
:10017800BD0040083F043E043D04031DC428C528B3
:10018800C9280130FA007A08C10008000034003498
:1001980000340034003400340034003400340034B7
:1001A80000340034003400340034003400340034A7
:1001B8000034003400340034003400340034003497
:1001C8000034003400340034003400348131042118
:1001D80080318131D521803190302000CA00003033
:1001E800CB008131C72180318B170B1720004108C4
:1001F8000319FF280029FA28C101FA288031282884
:100208008131A32181318131362181318131B4217C
:1002180081318131D1218131813196218131813101
:10022800632181318131AC21813181311D218131BD
:100238000800200099010B309700DC30960011105F
:100248001708FC001608FB0021001114D930200003
:10025800CA000130CB008131C72181313130200003
:1002680098000800023022008C008D01FD3021002A
:100278008C00F7308D00E43023008D001F308C0097
:1002880024008D018C012100951722009D019E01FB
:100298000800200011107C08F1007B08F000813173
:1002A8007721813120004208430403195C295D2924
:1002B800622943088A0042080A00813108000B308D
:1002C8002800960095012000931021009314D8303F
:1002D8002000CA000130CB008131C12181317F303B
:1002E8002800970008002000181D7B297C298329F5
:1002F800181071089700700896001814872971085B
:1003080097007008960008002000931044084504E0
:1003180003198F299029952945088A0044080A005D
:10032800813108003C30250093009501803094000D
:100338000130960092019101FC309E0508002400CE
:100348009401083095009601033092009512080038
:10035800013020009B009A01911007309C00080092
:1003680038302100990098012200960108006400A5
:1003780080010131890BBC29003420004B08C500DD
:100388004A08C400080020004B08C3004A08C200FD
:1003980008000F3400340034003416302100970070
:0C03A800080020001814080008000800DD
:020000040001F9
:04000E00E43FFF1EAE
:00000001FF
