:020000040000FA
:0400000080312828FB
:100008007E1480310B1F09280A2826282100931CFA
:100018000E280F2818282000931C132814281828A5
:1000280081318621803126282100111C1C281D2899
:1000380026282000111C21282228262881314B211E
:10004800803126287E10090080312A288131CB2171
:100058008031C6008131CC218031C7008131CD216A
:100068008031C8008131CE218031C9002030840020
:100078000030850022308131B92180317E10200086
:100088008031E828730872047104700403194D283C
:100098004E288728F901F90A5C280130F035F10D5E
:1000A800F20DF30D890B52280130F8007808F90792
:1000B800F31F5F286028512873087702031D6E28F4
:1000C80072087602031D6E2871087502031D6E28DA
:1000D80070087402031C712872287A287008F402C8
:1000E8007108F53B7208F63B7308F73B0130F336AD
:1000F800F20CF10CF00C890B7B280130F902031D7E
:100108008628872860287708F3007608F2007508A3
:10011800F1007408F000080022000C0C0139FA0004
:100128000130FA06FA0D0C087A06FD397A068C00B9
:1001380020004908F3004808F2004708F100460883
:10014800F00001303D07F40000303E3DF50000307E
:100158003F3DF6000030403DF700803146208031B9
:1001680073082000C0007208BF007108BE00700844
:10017800BD0040083F043E043D04031DC428C528B3
:10018800C728C101C10A0800003400340034003413
:1001980000340034003400340034003400340034B7
:1001A80000340034003400340034003400340034A7
:1001B8000034003400340034003400340034003497
:1001C800003400340034003481310221803181311F
:1001D800D321803190302000CA000030CB0081311B
:1001E800C52180318B170B17200041080319FD2802
:1001F800FE28F828C101F828803128288131A1215A
:1002080081318131342181318131B2218131813192
:10021800CF21813181319421813181316121813135
:100228008131AA21813181311B21813108002000CF
:1002380099010B309700DC30960011101708FC006C
:100248001608FB0021001114D7302000CA00013025
:10025800CB008131C5218131313020009800080060
:10026800023022008C008D01FD3021008C00F73017
:100278008D00E43023008D001F308C0024008D0198
:100288008C012100951722009D019E010800200085
:1002980011107C08F1007B08F00081317521813153
:1002A80020004208430403195A295B29602943089E
:1002B8008A0042080A0081310800F33028009600BD
:1002C80095012000931021009314D6302000CA0015
:1002D8000130CB008131BF2181317F302800970068
:1002E80008002000181D79297A2981291810710819
:1002F80097007008960018148529710897007008EF
:1003080096000800200093104408450403198D291D
:100318008E29932945088A0044080A00813108007B
:100328003C30250093009501803094000130960000
:1003380092019101FC309E050800240094010830C8
:1003480095009601033092009512080001302000B4
:100358009B009A01911007309C000800383021005A
:10036800990098012200960108006400800101317B
:10037800890BBA29003420004B08C5004A08C4007C
:10038800080020004B08C3004A08C20008000F34C8
:100398000034003400341630210097000800200093
:0803A800181408000800080009
:020000040001F9
:04000E00E43FFF1EAE
:00000001FF
